:020000040000FA
:060000000A128A110C280F
:10000800FE00030EF3000A08F4000A128A157F2D79
:100018000A128A110F28F701F80183120313E3016A
:10002800E401E501E601E701E801E901EA01EB0184
:10003800EC01ED0183160313A001A101A201A301A4
:1000480083010A128A11892B831203133D08803910
:10005800C2004208C7003D08C2004207C300430867
:10006800CD00BC1F382839283A284D144D080319EB
:100078003E283F284E284D0A031D432844284C2873
:100088000030BD000030BC000030BB000030BA00BA
:10009800BC1756280030BD000030BC000030BB0043
:1000A8000030BA0041088039C2004208C70641083A
:1000B800C2004207C3004308C800C01F642865285F
:1000C80066284814480803196A286B287A28480AB9
:1000D800031D6F28702878280030C1000030C00048
:1000E8000030BF000030BE00C01782280030C100B9
:1000F8000030C0000030BF000030BE0048080319BF
:10010800862887288C284D08031D8B288C2895283D
:100118000030BD000030BC000030BB000030BA0029
:10012800882B3A08C2004208F50040080A128A15CE
:10013800FD230A128A11760883120313D300750867
:10014800D2005208C200C301C401C5014508CC0051
:100158004408CB004308CA004208C9005308C2003B
:10016800C301C401C5014508D1004408D0004308B3
:10017800CF004208CE003B08C2004208F5003F0805
:100188000A128A15FD230A128A11760883120313AC
:10019800D3007508D2005208C200C301C401C501CA
:1001A8004208C907430803110318013E0319DD2853
:1001B800CA07440803110318013E0319E428CB07B2
:1001C800450803110318013E0319EB28CC0753080F
:1001D800C200C301C401C5014208CE074308031188
:1001E8000318013E0319F928CF074408031103181F
:1001F800013E03190029D007450803110318013EE1
:1002080003190729D1073C08C2004208F5003E0837
:100218000A128A15FD230A128A117608831203131B
:10022800D3007508D2005208C200C301C401C50139
:100238004208C907430803110318013E0319252979
:10024800CA07440803110318013E03192C29CB07D8
:10025800450803110318013E03193329CC07530835
:10026800C200C301C401C5014208CE0743080311F7
:100278000318013E03194129CF0744080311031845
:10028800013E03194829D007450803110318013E08
:1002980003194F29D1070830C2000310C90DCA0D30
:1002A800CB0DCC0DC20B51293B08C2004208F5000A
:1002B8003E080A128A15FD230A128A11760883124B
:1002C8000313D3007508D2005208C2005308C300B4
:1002D800C401C5014208C907430803110318013EB8
:1002E80003197729CA07440803110318013E0319A3
:1002F8007E29CB07450803110318013E03198529F8
:10030800CC073A08C2004208F5003F080A128A15CD
:10031800FD230A128A11760883120313D300750885
:10032800D2005208C2005308C300C401C5014208E4
:10033800C907430803110318013E0319A429CA0772
:10034800440803110318013E0319AB29CB074508DC
:1003580003110318013E0319B229CC070830C20063
:100368000310C90DCA0DCB0DCC0DC20BB4293A0828
:10037800C2004208F5003E080A128A15FD230A1237
:100388008A11760883120313D3007508D200520825
:10039800C2005308C300C401C5014208C907430885
:1003A80003110318013E0319DA29CA074408031187
:1003B8000318013E0319E129CB0745080311031867
:1003C800013E0319E829CC073B08C2004208F500A2
:1003D80040080A128A15FD230A128A117608831228
:1003E8000313D3007508D2005208C2005308C30093
:1003F800C401C5014208CE07430803110318013E92
:100408000319072ACF07440803110318013E0319EB
:100418000E2AD007450803110318013E0319152AAF
:10042800D1073C08C2004208F5003F080A128A15A5
:10043800FD230A128A11760883120313D300750864
:10044800D2005208C2005308C300C401C5014208C3
:10045800CE07430803110318013E0319342ACF07B6
:10046800440803110318013E03193B2AD007450825
:1004780003110318013E0319422AD1073C08C200A0
:100488004208F50040080A128A15FD230A128A114B
:10049800760883120313D3007508D2005208C200ED
:1004A8005308C300C401C50108300310C20DC30DB1
:1004B800C40DC50DFF3E031D592A4208CE07430847
:1004C80003110318013E03196A2ACF0744080311D0
:1004D8000318013E0319712AD007450803110318B0
:1004E800013E0319782AD1074908C2004A08C30007
:1004F8004B08C4004C08C50018300310C50CC40CC8
:10050800C30CC20CFF3E031D812A4208CE074308D4
:1005180003110318013E0319922ACF074408031157
:100528000318013E0319992AD00745080311031837
:10053800013E0319A02AD1070830C2000310C90DD3
:10054800CA0DCB0DCC0DC20BA22A4D084807C2001C
:10055800C301C30D4208823ED20043080318013E7E
:10056800FF3ED300D42A0130C2000310CE0DCF0DB8
:10057800D00DD10DC20BB92ACC1FC32AC42AC52A53
:100588004E140130C2000310C90DCA0DCB0DCC0D9D
:10059800C20BC72AFF30D2070318D30AFF30D3078C
:1005A800D01FD72AD82AB72AC801CC1FDC2ADD2AAF
:1005B800F92AFF304905C200FF304A05C300FF3061
:1005C8004B05C4007F304C05C5004508440443046E
:1005D80042040319F02AF12AF42AC801C80AF92AA0
:1005E8004E1CF72AF82AF92AF12A48080319FD2A85
:1005F800FE2A2F2B0130CE07003003180130CF0719
:10060800003003180130D007003003180130D1073B
:10061800511C0F2B102B2F2B4E08C2004F08C30064
:100628005008C4005108C5000130C600450DC50C6E
:10063800C40CC30CC20CC60B1A2B4508D1004408C5
:10064800D0004308CF004208CE000130D20703187B
:10065800D30A0030D3075308803AFF0080307F0266
:10066800031D382BFF305202031C3B2B3C2B472B1E
:100678007F3083120313D1008030D0000030CF00C8
:100688000030CE007C2B831203135308803AFF00FE
:1006980080307F02031D522B013052020318552B64
:1006A800562B622B003083120313D1000030D00088
:1006B8000030CF000030CE00C7017C2B831203131B
:1006C8005208C2004208CD00FF30CE05FF30CF05EA
:1006D8007F30D0050030D1054D1C732B742B752B42
:1006E800D0174D08C2000310420CC3004308D100C4
:1006F8004708C2004208D1045108BD005008BC0098
:100708004F08BB004E08BA000800FF3083160313D9
:1007180086003F3081008B170B160B170C148312C1
:1007280003139010101690160B308F00DC308E00DB
:1007380010148316031387018801FF3085001F10EA
:100748009F141F159F15831203131F139F138316DE
:1007580003139F139E01831203139E011F140A1291
:100768008A1192270A128A116400831203139F11B7
:100778001F129F121F15C02BC12B000083120313D9
:100788001E08DF00E001E101E2016208A300610840
:10079800A2006008A1005F08A00000300A128A15B4
:1007A8005A260A128A118312031323088316031385
:1007B800A30083120313220883160313A2008312D3
:1007C8000313210883160313A100831203132008BF
:1007D80083160313A000230883120313A7008316AC
:1007E8000313220883120313A60083160313210898
:1007F80083120313A500831603132008831203131F
:10080800A4004330A3007F30A2000030A1000030D4
:10081800A0000A128A11B5250A128A11831203133D
:100828002308C1002208C0002108BF002008BE001C
:100838004230BD00C830BC000030BB000030BA00F8
:100848000A128A1128200A128A11831203133D08FA
:10085800D7003C08D6003B08D5003A08D4000A1255
:100868008A15DE250A128A11831203135508EA0035
:100878005408E9008710071007118711071287121B
:10088800502C8716823083120313E000DD30DF001E
:10089800DF0B4C2CE00B4C2C83120313861E552CBB
:1008A800562C452C87120A128A15B3230A128A116C
:1008B80083120313A201A20A01300A128A152725FE
:1008C8000A128A110B3083120313A3008030A4008C
:1008D8000A128A159B240A128A11153083120313EF
:1008E800DF005F08AC006A08AE006908AD006B3035
:1008F8000A128A1516270A128A110A30831203135C
:10090800DF005F08A20001300A128A1527250A12A3
:100918008A116B3083120313A3000030A4000A125B
:100928008A159B240A128A1164003B308312031330
:1009380065066604031DA12CA22CAA2C0130E3072E
:100948000318E40A0030E407E501E60117306306FE
:100958006404031DB02CB12CB72CE501E601E701B6
:10096800E801E301E4011530DF005F08AC0064082A
:10097800AE006308AD006B300A128A1516270A12FA
:100988008A1183120313A201A20A02300A128A15DD
:1009980027250A128A116B3083120313A300003033
:1009A800A4000A128A159B240A128A1103308312A2
:1009B8000313DF005F08A20002300A128A152725F8
:1009C8000A128A11183083120313A3008030A4007E
:1009D8000A128A159B240A128A11153083120313EE
:1009E800DF005F08AC006608AE006508AD006B303C
:1009F8000A128A1516270A128A1104308312031361
:100A0800DF005F08A20002300A128A1527250A12A1
:100A18008A116B3083120313A3000030A4000A125A
:100A28008A159B240A128A11153083120313DF00DA
:100A38005F08AC006808AE006708AD006B300A12AA
:100A48008A1516270A128A11073083120313DF004A
:100A58005F08A20002300A128A1527250A128A1195
:100A68006B3083120313A3000030A4000A128A1506
:100A78009B240A128A11831203138618442D452DCC
:100A8800772D0714823083120313E000DD30DF0076
:100A9800DF0B4C2DE00B4C2D831203130619552D3B
:100AA800562D652D8714823083120313E000DD3044
:100AB800DF00DF0B5D2DE00B5D2D83120313871024
:100AC800772D8619682D692D772D071582308312A9
:100AD8000313E000DD30DF00DF0B702DE00B702D1D
:100AE80083120313071107108711061A7C2D7D2D19
:100AF800AF2D8715823083120313E000DD30DF004D
:100B0800DF0B842DE00B842D8312031306198D2D22
:100B18008E2D9D2D8714823083120313E000DD3063
:100B2800DF00DF0B952DE00B952D83120313871043
:100B3800AF2D8619A02DA12DAF2D07158230831258
:100B48000313E000DD30DF00DF0BA82DE00BA82D3C
:100B580083120313071107108711B92B0A128A1180
:100B68000C288312031327088039A8002808B1002D
:100B78002708A8002807A9002908B800A61FC52D1E
:100B8800C62DC72D381438080319CB2DCC2DDC2DD4
:100B9800380A031DD02DD12DD92D0030A7000030E3
:100BA800A6000030A5000030A400A617A701E42D78
:100BB8000030A7000030A6000030A5000030A400D7
:100BC80023088039A8002808B1062308A8002807A8
:100BD800A9002908B900A21FF22DF32DF42D39140C
:100BE80039080319F82DF92D092E390A031DFD2D91
:100BF800FE2D062E0030A3000030A2000030A10018
:100C08000030A000A217A301112E0030A30000306D
:100C1800A2000030A1000030A00023082204210413
:100C28002004031D182E192E322E0030A700003084
:100C3800A6000030A5000030A4008030A6047F3054
:100C4800A7043108A8002808A7042708A300260835
:100C5800A2002508A1002408A000912F3808031D30
:100C6800362E372E402E0030A3000030A200003070
:100C7800A1000030A000912F3808A800A901290878
:100C8800AB0039082802AA00031CAB032A087F3EE0
:100C9800B2002B080318013E003EB3002708B0003D
:100CA8002608AF002508AE002408AD000030A700D4
:100CB8000030A6000030A5000030A4000030B700C6
:100CC8000030B6000030B5000030B400B901B62ECF
:100CD80039080319702E712E912E0130A8000310C7
:100CE800AD0DAE0DAF0DB00DA80B732E0130A800E1
:100CF8000310A40DA50DA60DA70DA80B7C2EB71FDC
:100D0800862E872E882E24140130A8000310B40DD7
:100D1800B50DB60DB70DA80B8A2E23083002031D9A
:100D28009F2E22082F02031D9F2E21082E02031D2D
:100D38009F2E20082D02031CA22EA32EB22E371799
:100D48002008AD022108031C210FAE022208031C53
:100D5800220FAF022308031C230FB0020130A800A2
:100D68002808B9071A303902031CBB2EBC2E6C2E7A
:100D780030082F042E042D040319C32EC42EE32E8D
:100D88003414E32E0130A8000310A40DA50DA60D00
:100D9800A70DA80BC82EB71FD22ED32ED42E2414DD
:100DA8000130A8000310B40DB50DB60DB70DA80B92
:100DB800D62EFF30B2070318B30AFF30B307A61FB9
:100DC800E62EE72EC62EB901B71FEB2EEC2E082F04
:100DD800FF303405A800FF303505A900FF3036057F
:100DE800AA007F303705AB002B082A042904280401
:100DF8000319FF2E002F032FB901B90A082F241C4D
:100E0800062F072F082F002F390803190C2F0D2F35
:100E18003E2F0130A407003003180130A507003029
:100E280003180130A607003003180130A707271C54
:100E38001E2F1F2F3E2F2408A8002508A9002608CA
:100E4800AA002708AB000130AC002B0DAB0CAA0C94
:100E5800A90CA80CAC0B292F2B08A7002A08A60060
:100E68002908A5002808A4000130B2070318B30A0E
:100E78000030B3073308803AFF0080307F02031D3B
:100E8800472FFF303202031C4A2F4B2F592FFF30B8
:100E980083120313B2000030B3000030A700003003
:100EA800A6000030A5000030A40083120313330805
:100EB800803AFF0080307F02031D642F0130320228
:100EC8000318672F682F752F83120313B201B3011C
:100ED8000030A7000030A6000030A5000030A400B4
:100EE800B101831203133208A8002808B800381C7F
:100EF8007E2F7F2F812FA617852F7F30A8002808E7
:100F0800A6053808A8000310280CA9002908A7007E
:100F18003108A8002808A704292E080000300A1262
:100F28008A15DB230A128A110D3083120313A300DA
:100F3800FB30A200A20B9E2FA30B9E2F03300A1298
:100F48008A15C0230A128A11043083120313A300DE
:100F58003D30A200A20BAE2FA30BAE2F03300A1216
:100F68008A15C0230A128A11083083120313A300BA
:100F78002230A200A20BBE2FA30BBE2F000003300D
:100F88000A128A15C0230A128A1102300A128A1517
:100F9800C0230A128A1102300A128A15C0230A12C3
:100FA8008A1108300A128A15C0230A128A110030E1
:100FB8000A128A15C0230A128A110C300A128A15DD
:100FC800C0230A128A1100300A128A15C0230A1295
:100FD8008A1106300A128A15C0230A128A110800DB
:10100000FF1B0A2883137F1883170008840A03191B
:10101000FF0A080008308A000408840A82070034A6
:10102000013400340A34003464340034E8340334C6
:101030001034273442344134543445345234493422
:1010400041343A34203400342534693400343A349D
:0210500000346A
:1017660000300A128A15C0230A128A1501300A129D
:101776008A15C0230A128A150800F600831203137D
:10178600081176080A128A15DB230A128A158312B3
:1017960003138815033083120313A1009730A000AA
:1017A600A00BD32BA10BD32B831203138811080094
:1017B600F500751CDF2BE02BE42B831203130816B0
:1017C600E72B831203130812F51CEA2BEB2BED2BE8
:1017D6008816EE2B8812751DF12BF22BF42B0817A9
:1017E600F52B0813F51DF82BF92BFB2B8817FC2B73
:1017F6008813080083120313A600A201A30175082B
:10180600A000A1012008A4002108A500261C0C2C7C
:101816000D2C132C2408A2070318A30A2508A307D6
:1018260001300310A40DA50DFF3E031D142C03105B
:10183600A60C2608031D202C212C092C2308F600B3
:101846002208F500080083120313A20022080F39AC
:10185600F6007608A0002208F039F6007608A10006
:1018660008152108F60004300310F60CFF3E031D90
:10187600372C76080A128A15DB230A128A15831278
:10188600031388150630F600F60B472C000083126A
:101896000313881120080A128A15DB230A128A15F7
:1018A6008312031388150630F600F60B582C000039
:1018B60083120313881108008312031327082804D0
:1018C6000319662C672C962CAB01AB0A752C0130DC
:1018D6000310A70DA80DFF3E031D6B2C0130F6006B
:1018E6007608AB07A81F782C792C6A2C28082A02C0
:1018F600031D7F2C27082902031C822C832C892C8C
:101906002708A9022808031CAA03AA02013003100B
:10191600A80CA70CFF3E031D8A2C0130AB02031D49
:10192600952C962C792C2A08A8002908A7000800CF
:1019360083120313A801A901C42C28082307A600B3
:101946002408A5000318A50AA81FAA2CA50383121C
:1019560003132508A7002708FF00260884000A129B
:101966008A1500200A128A150A128A1526240A12D6
:101976008A15013083120313A8070318A90A003039
:10198600A90728082307A6002408A5000318A50A06
:10199600A81FCE2CA503831203132508A70027082A
:1019A600FF00260884000A128A1500200A128A15EA
:1019B600003A031DDF2CE02CA02C08008312031331
:1019C600A501A601200821040319EA2CEB2C222DDF
:1019D600A401A40AF92C01300310A00DA10DFF3EAD
:1019E600031DEF2C0130F5007508A407A11FFC2C80
:1019F600FD2CEE2C01300310A50DA60DFF3E031D98
:101A0600FE2C21082302031D0A2D20082202031C96
:101A16000D2D0E2D152D2008A2022108031CA3034F
:101A2600A302251401300310A10CA00CFF3E031DD8
:101A3600162D0130A402031D212D222DFD2C260872
:101A4600A1002508A000080083120313A5002503A2
:101A5600031D2E2D2F2D542D22087F3EA300230873
:101A6600A8002808A30004300310A30CFF3E031DA2
:101A7600372D2308A4002408A60028080F39A30040
:101A86002308A70026080A128A15C0230A128A15F7
:101A96008312031327080A128A15C0230A128A150D
:101AA6007E2D02302506031D592D5A2D7E2D220826
:101AB600BF3EA3002308A8002808A3000430031093
:101AC600A30CFF3E031D622D2308A4002408A600D4
:101AD60028080F39A3002308A70026080A128A152A
:101AE600C0230A128A158312031327080A128A15BD
:101AF600C0230A128A1508008B1C822D832DB72D50
:101B06008B10AD2D64008312031307108711071184
:101B16008710071687160230F2004530F100A9300B
:101B2600F000F00B942DF10B942DF20B942D9B2DC0
:101B3600640083120313071287120230F200453045
:101B4600F100A930F000F00BA62DF10BA62DF20B3B
:101B5600A62DAD2D83120313061CB22DB32D852D94
:101B66000130F7000030F800831203130C1CBC2D63
:101B7600BD2DD72D0C100B308F00DC308E000130C0
:101B8600E7070318E80A0030E8073B3067066804F1
:101B9600031DCE2DCF2DD72D0130E5070318E60AFC
:101BA6000030E607E701E80174088A00730E830037
:101BB600FE0E7E0E0900031083120313560D570DF9
:101BC600D8005808DE005E08031DEA2DEB2DF42D23
:101BD6000030D7000030D6000030D5000030D400E9
:101BE600592E5408D8005508D9005608DA00570867
:101BF600DB001F300310DB0CDA0CD90CD80CFF3ECF
:101C0600031DFD2D5808DC005C08DD00D617FF30EB
:101C1600D405FF30D505FF30D6050030D705963000
:101C2600DE02DE1F172E182E322E5E08803A973EF1
:101C360003181E2E1F2E202EEB2D01300310D70C5D
:101C4600D60CD50CD40CFF3E031D212E0130D80036
:101C56005808DE07031D302E312E202E492E203047
:101C66005E02031C372E382E442EEB2D0130D80091
:101C76000310D40DD50DD60DD70DD80B3B2E013044
:101C8600DE025E08031D482E492E392E5D08031913
:101C96004D2E4E2E592ED409D509D609D709D40A68
:101CA6000319D50A0319D60A0319D70A080083129D
:101CB6000313A80028080319612E622E762EA31F8F
:101CC600652E662E762E2009AA002109AB00220970
:101CD600AC002309AD00AA0A0319AB0A0319AC0A22
:101CE6000319AD0A7E2E2308AD002208AC00210898
:101CF600AB002008AA002308220421042004031DA7
:101D0600852E862E8F2E0030A3000030A2000030D4
:101D1600A1000030A000152F9630A4002408A900C9
:101D2600A12E0130A4002408A90701300310AD0C30
:101D3600AC0CAB0CAA0CFF3E031D992EFE302D05F4
:101D4600031DA62EA72E942EC32E0130A400240810
:101D5600A9070130AA07003003180130AB0700308D
:101D660003180130AC07003003180130AD0701300D
:101D76000310AD0CAC0CAB0CAA0CFF3E031DBB2E26
:101D8600FF302D05031DC82EC92EA82ED52E0130D5
:101D9600A9020130A4000310AA0DAB0DAC0DAD0DC8
:101DA600A40BCE2EAC1BD82ED92EDF2E0230290244
:101DB6000318DE2EDF2ECA2E2918E22EE32EEB2E76
:101DC600FF30AA05FF30AB057F30AC05FF30AD050F
:101DD6000310A90C2908A400A501A601A701183023
:101DE6000310A40DA50DA60DA70DFF3E031DF32E92
:101DF6002408AA042508AB042608AC042708AD0469
:101E060028080319072F082F0D2FA31F0B2F0C2FA0
:101E16000D2FAD172D08A3002C08A2002B08A1003A
:101E26002A08A000080083120313B7002D30AF0064
:101E36002F08B200E92F253038060319232F242F47
:101E4600302F3808AF00370884002F08831380002E
:101E56000130AF002F08B707E92FB3010130AC07F7
:101E6600FF302C0784000A128A150A200A128A15E6
:101E7600B800AF00B0013008003A0319432FE92F2C
:101E86002F08003A0319FB2F643A03194E2F0D3A17
:101E960003194E2FE92F3208840083130008B5007A
:101EA600840A0008B6000230AF002F08B207B61F3A
:101EB6005D2F5E2F672F0330AF002F08B304B509DF
:101EC600B609B50A0319B60AB801B80A3808AF0048
:101ED6002F07013E84000A128A150A200A128A1563
:101EE600B0000A128A150A200A128A15B1003108B2
:101EF6003602031D802F300835020318832F842FE6
:101F0600852F8F2F0130AF002F08B8070530380610
:101F1600031D8E2F8F2F692F330803390319942F32
:101F2600952FA02F2D30AF00370884002F0883137C
:101F360080000130AF002F08B7073808AF002F0820
:101F4600B400E02F0A30A7000030A8003408AF0024
:101F56002F07013E84000A128A150A200A128A15E2
:101F6600A0000A128A150A200A128A15A10036084C
:101F7600A3003508A2000A128A15E1240A128A155E
:101F8600831203132108AA002008A9000A128A1541
:101F96005F240A128A15831203132708303EB00005
:101FA6003008B8003808AF00370884002F088313BC
:101FB60080000130AF002F08B707FF30AF002F08B1
:101FC600B407340A031DE82FE92FA52F0130AC070B
:101FD600FF302C0784000A128A150A200A128A1575
:101FE600AF002F08B8003808031DFA2FFB2F1E2F4D
:0A1FF60037088400831380010800FF
:02400E00F53F7C
:00000001FF
