:020000040000FA
:060000000A128A110C280F
:10000800FE00030EF3000A08F4000A128A159D2D5B
:100018000A128A110F28F501F601F701F801831277
:100028000313E301E401E501E601E701E801E90161
:10003800EA01EB01EC01ED0183010A128A11852B1B
:10004800831203133D088039C2004208C7003D08E7
:10005800C2004207C3004308CD00BC1F342835281E
:1000680036284D144D0803193A283B284A284D0ACA
:10007800031D3F28402848280030BD000030BC0040
:100088000030BB000030BA00BC1752280030BD0059
:100098000030BC000030BB000030BA004108803995
:1000A800C2004208C7064108C2004207C30043080D
:1000B800C800C01F6028612862284814480803192E
:1000C800662867287628480A031D6B286C28742838
:1000D8000030C1000030C0000030BF000030BE005A
:1000E800C0177E280030C1000030C0000030BF00BB
:1000F8000030BE00480803198228832888284D0844
:10010800031D8728882891280030BD000030BC00D6
:100118000030BB000030BA00842B3A08C200420805
:10012800A00040080A128A1517240A128A1183129D
:1001380003132108D3002008D2005208C200C301CB
:10014800C401C5014508CC004408CB004308CA00D7
:100158004208C9005308C200C301C401C5014508CB
:10016800D1004408D0004308CF004208CE003B0825
:10017800C2004208A0003F080A128A1517240A1272
:100188008A11831203132108D3002008D2005208D1
:10019800C200C301C401C5014208C90743080311CD
:1001A8000318013E0319D928CA0744080311031884
:1001B800013E0319E028CB07450803110318013E47
:1001C8000319E728CC075308C200C301C401C501BD
:1001D8004208CE07430803110318013E0319F52806
:1001E800CF07440803110318013E0319FC28D00760
:1001F800450803110318013E03190329D1073C08D8
:10020800C2004208A0003E080A128A1517240A12E2
:100218008A11831203132108D3002008D200520840
:10022800C200C301C401C5014208C907430803113C
:100238000318013E03192129CA07440803110318AA
:10024800013E03192829CB07450803110318013E6D
:1002580003192F29CC075308C200C301C401C501E3
:100268004208CE07430803110318013E03193D292C
:10027800CF07440803110318013E03194429D00786
:10028800450803110318013E03194B29D10708300B
:10029800C2000310C90DCA0DCB0DCC0DC20B4D29E0
:1002A8003B08C2004208A0003E080A128A1517241B
:1002B8000A128A11831203132108D3002008D200DE
:1002C8005208C2005308C300C401C5014208C90747
:1002D800430803110318013E03197329CA07440888
:1002E80003110318013E03197A29CB0745080311A6
:1002F8000318013E03198129CC073A08C2004208B5
:10030800A0003F080A128A1517240A128A118312BC
:1003180003132108D3002008D2005208C200530852
:10032800C300C401C5014208C907430803110318E3
:10033800013E0319A029CA07440803110318013E06
:100348000319A729CB07450803110318013E031910
:10035800AE29CC070830C2000310C90DCA0DCB0D59
:10036800CC0DC20BB0293A08C2004208A0003E08D2
:100378000A128A1517240A128A11831203132108F4
:10038800D3002008D2005208C2005308C300C40199
:10039800C5014208C907430803110318013E0319A0
:1003A800D629CA07440803110318013E0319DD2999
:1003B800CB07450803110318013E0319E429CC07AC
:1003C8003B08C2004208A00040080A128A151724F8
:1003D8000A128A11831203132108D3002008D200BD
:1003E8005208C2005308C300C401C5014208CE0721
:1003F800430803110318013E0319032ACF074408D1
:1004080003110318013E03190A2AD00745080311EE
:100418000318013E0319112AD1073C08C2004208FB
:10042800A0003F080A128A1517240A128A1183129B
:1004380003132108D3002008D2005208C200530831
:10044800C300C401C5014208CE07430803110318BD
:10045800013E0319302ACF07440803110318013E4F
:100468000319372AD007450803110318013E031959
:100478003E2AD1073C08C2004208A00040080A12E0
:100488008A1517240A128A11831203132108D3002C
:100498002008D2005208C2005308C300C401C50195
:1004A80008300310C20DC30DC40DC50DFF3E031D5A
:1004B800552A4208CE07430803110318013E0319C1
:1004C800662ACF07440803110318013E03196D2A51
:1004D800D007450803110318013E0319742AD107F0
:1004E8004908C2004A08C3004B08C4004C08C500AC
:1004F80018300310C50CC40CC30CC20CFF3E031DFE
:100508007D2A4208CE07430803110318013E031948
:100518008E2ACF07440803110318013E0319952AB0
:10052800D007450803110318013E03199C2AD10777
:100538000830C2000310C90DCA0DCB0DCC0DC20B7B
:100548009E2A4D084807C200C301C30D4208823ED7
:10055800D20043080318013EFF3ED300D02A0130E1
:10056800C2000310CE0DCF0DD00DD10DC20BB52A90
:10057800CC1FBF2AC02AC12A4E140130C200031062
:10058800C90DCA0DCB0DCC0DC20BC32AFF30D20743
:100598000318D30AFF30D307D01FD32AD42AB32A8B
:1005A800C801CC1FD82AD92AF52AFF304905C2002C
:1005B800FF304A05C300FF304B05C4007F304C05AF
:1005C800C50045084404430442040319EC2AED2AF3
:1005D800F02AC801C80AF52A4E1CF32AF42AF52A7B
:1005E800ED2A48080319F92AFA2A2B2B0130CE07DD
:1005F800003003180130CF07003003180130D0074E
:10060800003003180130D107511C0B2B0C2B2B2B5E
:100618004E08C2004F08C3005008C4005108C50066
:100628000130C600450DC50CC40CC30CC20CC60B6A
:10063800162B4508D1004408D0004308CF004208D3
:10064800CE000130D2070318D30A0030D30753086D
:10065800803AFF0080307F02031D342BFF305202A6
:10066800031C372B382B432B7F3083120313D10005
:100678008030D0000030CF000030CE00782B8312BD
:1006880003135308803AFF0080307F02031D4E2B6E
:10069800013052020318512B522B5E2B003083126B
:1006A8000313D1000030D0000030CF000030CE005E
:1006B800C701782B831203135208C2004208CD00E9
:1006C800FF30CE05FF30CF057F30D0050030D10593
:1006D8004D1C6F2B702B712BD0174D08C2000310C7
:1006E800420CC3004308D1004708C2004208D104A5
:1006F8005108BD005008BC004F08BB004E08BA00A6
:100708000800FF308316031386003F3081008B17E3
:100718000B160B170C148312031390101016901657
:100728000B308F00DC308E00101483160313870102
:100738008801FF3085001F109F141F159F15831215
:1007480003131F139F13831603139F139E01831212
:1007580003139E011F140A128A15F8250A128A111A
:100768006400831203139F111F129F121F15BC2BC5
:10077800BD2B0000831203131E08DF00E001E10116
:10078800E2016208A3006108A2006008A1005F08F6
:10079800A00000300A128A155A260A128A118312FA
:1007A80003132308F8002208F7002108F6002008A0
:1007B800F5007808A7007708A6007608A500750850
:1007C800A4004330A3007F30A2000030A100003015
:1007D800A0000A128A1195250A128A11831203139E
:1007E8002308C1002208C0002108BF002008BE005D
:1007F8004230BD00C830BC000030BB000030BA0039
:100808000A128A1124200A128A11831203133D083E
:10081800D7003C08D6003B08D5003A08D4000A1295
:100828008A1172270A128A11831203135508EA00E3
:100838005408E9008710071007118711071287125B
:10084800302C8716823083120313E000DD30DF007E
:10085800DF0B2C2CE00B2C2C83120313861E352C5B
:10086800362C252C87120A128A11EE270A128A11B1
:1008780083120313A401A40A01300A128A1545251C
:100888000A128A110B3083120313A5008030A600C8
:100898000A128A15B9240A128A1115308312031311
:1008A800DF005F08AE006A08B0006908AF006B306F
:1008B8000A128A1516270A128A110A30831203139C
:1008C800DF005F08A40001300A128A1545250A12C4
:1008D8008A116B3083120313A5000030A6000A1298
:1008E8008A15B9240A128A1164003B308312031353
:1008F80065066604031D812C822C8A2C0130E307CF
:100908000318E40A0030E407E501E601173063063E
:100918006404031D902C912C972CE501E601E70156
:10092800E801E301E4011530DF005F08AE00640868
:10093800B0006308AF006B300A128A1516270A1236
:100948008A1183120313A401A40A02300A128A1519
:1009580045250A128A116B3083120313A500003053
:10096800A6000A128A15B9240A128A1103308312C2
:100978000313DF005F08A40002300A128A15452518
:100988000A128A11183083120313A5008030A600BA
:100998000A128A15B9240A128A1115308312031310
:1009A800DF005F08AE006608B0006508AF006B3076
:1009B8000A128A1516270A128A11043083120313A1
:1009C800DF005F08A40002300A128A1545250A12C2
:1009D8008A116B3083120313A5000030A6000A1297
:1009E8008A15B9240A128A11153083120313DF00FD
:1009F8005F08AE006808B0006708AF006B300A12E5
:100A08008A1516270A128A11073083120313DF008A
:100A18005F08A40002300A128A1545250A128A11B5
:100A28006B3083120313A5000030A6000A128A1542
:100A3800B9240A128A11831203138618242D252D2E
:100A4800572D0714823083120313E000DD30DF00D6
:100A5800DF0B2C2DE00B2C2D831203130619352DDB
:100A6800362D452D8714823083120313E000DD30C4
:100A7800DF00DF0B3D2DE00B3D2D831203138710A4
:100A8800572D8619482D492D572D07158230831269
:100A98000313E000DD30DF00DF0B502DE00B502D9D
:100AA80083120313071107108711061A5C2D5D2D99
:100AB8008F2D8715823083120313E000DD30DF00AD
:100AC800DF0B642DE00B642D8312031306196D2DC3
:100AD8006E2D7D2D8714823083120313E000DD30E4
:100AE800DF00DF0B752DE00B752D831203138710C4
:100AF8008F2D8619802D812D8F2D07158230831219
:100B08000313E000DD30DF00DF0B882DE00B882DBC
:100B180083120313071107108711B52B0A128A11C4
:100B28000C288312031327088039A8002808B1006D
:100B38002708A8002807A9002908B800A61FA52D7E
:100B4800A62DA72D381438080319AB2DAC2DBC2DB4
:100B5800380A031DB02DB12DB92D0030A700003083
:100B6800A6000030A5000030A400A617A701C42DD8
:100B78000030A7000030A6000030A5000030A40017
:100B880023088039A8002808B1062308A8002807E8
:100B9800A9002908B900A21FD22DD32DD42D3914AC
:100BA80039080319D82DD92DE92D390A031DDD2D52
:100BB800DE2DE62D0030A3000030A2000030A10099
:100BC8000030A000A217A301F12D0030A3000030CF
:100BD800A2000030A1000030A00023082204210454
:100BE8002004031DF82DF92D122E0030A700003027
:100BF800A6000030A5000030A4008030A6047F3095
:100C0800A7043108A8002808A7042708A300260875
:100C1800A2002508A1002408A000712F3808031D90
:100C2800162E172E202E0030A3000030A200003010
:100C3800A1000030A000712F3808A800A9012908D8
:100C4800AB0039082802AA00031CAB032A087F3E20
:100C5800B2002B080318013E003EB3002708B0007D
:100C68002608AF002508AE002408AD000030A70014
:100C78000030A6000030A5000030A4000030B70006
:100C88000030B6000030B5000030B400B901962E2F
:100C980039080319502E512E712E0130A800031067
:100CA800AD0DAE0DAF0DB00DA80B532E0130A80041
:100CB8000310A40DA50DA60DA70DA80B5C2EB71F3C
:100CC800662E672E682E24140130A8000310B40D78
:100CD800B50DB60DB70DA80B6A2E23083002031DFB
:100CE8007F2E22082F02031D7F2E21082E02031DAE
:100CF8007F2E20082D02031C822E832E922E37175A
:100D08002008AD022108031C210FAE022208031C93
:100D1800220FAF022308031C230FB0020130A800E2
:100D28002808B9071A303902031C9B2E9C2E4C2E1A
:100D380030082F042E042D040319A32EA42EC32E2D
:100D48003414C32E0130A8000310A40DA50DA60D60
:100D5800A70DA80BA82EB71FB22EB32EB42E24149D
:100D68000130A8000310B40DB50DB60DB70DA80BD2
:100D7800B62EFF30B2070318B30AFF30B307A61F19
:100D8800C62EC72EA62EB901B71FCB2ECC2EE82E05
:100D9800FF303405A800FF303505A900FF303605BF
:100DA800AA007F303705AB002B082A042904280441
:100DB8000319DF2EE02EE32EB901B90AE82E241C10
:100DC800E62EE72EE82EE02E39080319EC2EED2E3C
:100DD8001E2F0130A407003003180130A50700308A
:100DE80003180130A607003003180130A707271C95
:100DF800FE2EFF2E1E2F2408A8002508A90026086D
:100E0800AA002708AB000130AC002B0DAB0CAA0CD4
:100E1800A90CA80CAC0B092F2B08A7002A08A600C0
:100E28002908A5002808A4000130B2070318B30A4E
:100E38000030B3073308803AFF0080307F02031D7B
:100E4800272FFF303202031C2A2F2B2F392FFF3078
:100E580083120313B2000030B3000030A700003043
:100E6800A6000030A5000030A40083120313330845
:100E7800803AFF0080307F02031D442F0130320288
:100E88000318472F482F552F83120313B201B301BC
:100E98000030A7000030A6000030A5000030A400F4
:100EA800B101831203133208A8002808B800381CBF
:100EB8005E2F5F2F612FA617652F7F30A8002808A7
:100EC800A6053808A8000310280CA9002908A700BF
:100ED8003108A8002808A704092E08000310831267
:100EE8000313560D570DD8005808DE005E08031D81
:100EF8007E2F7F2F882F0030D7000030D60000309B
:100F0800D5000030D400ED2F5408D8005508D9007A
:100F18005608DA005708DB001F300310DB0CDA0C28
:100F2800D90CD80CFF3E031D912F5808DC005C0833
:100F3800DD00D617FF30D405FF30D505FF30D605C4
:100F48000030D7059630DE02DE1FAB2FAC2FC62F40
:100F58005E08803A973E0318B22FB32FB42F7F2F25
:100F680001300310D70CD60CD50CD40CFF3E031D52
:100F7800B52F0130D8005808DE07031DC42FC52F30
:100F8800B42FDD2F20305E02031CCB2FCC2FD82F9F
:100F98007F2F0130D8000310D40DD50DD60DD70DF5
:100FA800D80BCF2F0130DE025E08031DDC2FDD2FAA
:100FB800CD2F5D080319E12FE22FED2FD409D509B4
:100FC800D609D709D40A0319D50A0319D60A031969
:100FD800D70A080000300A128A15DC230A128A117F
:0E0FE80001300A128A15DC230A128A11080051
:10100000FF1B0A2883137F1883170008840A03191B
:10101000FF0A080008308A000408840A82070034A6
:10102000013400340A34003464340034E8340334C6
:101030001034273442344134543445345234493422
:1010400041343A34203400342534693400343A349D
:0210500000346A
:1017B80083120313A300081123080A128A15F723BA
:1017C8000A128A1583120313881503308312031330
:1017D800A2009730A100A10BEF2BA20BEF2B8312D5
:1017E80003138811080083120313A000201CFD2B8B
:1017F800FE2B002C0816012C0812A01C042C052C0A
:10180800072C8816082C8812201D0B2C0C2C0E2C4B
:1018180008170F2C0813A01D122C132C152C881731
:10182800162C8813080083120313A800A401A5012D
:101838002008A200A3012208A6002308A700281C4C
:10184800262C272C2D2C2608A4070318A50A2708C0
:10185800A50701300310A60DA70DFF3E031D2E2C72
:101868000310A80C2808031D3A2C3B2C232C250810
:10187800A1002408A00008008312031328082904E3
:101888000319472C482C772CAD01AD0A562C013092
:101898000310A80DA90DFF3E031D4C2C0130AC0010
:1018A8002C08AD07A91F592C5A2C4B2C29082B02A0
:1018B800031D602C28082A02031C632C642C6A2C44
:1018C8002808AA022908031CAB03AB020130031045
:1018D800A90CA80CFF3E031D6B2C0130AD02031DA3
:1018E800762C772C5A2C2B08A9002A08A800080067
:1018F80083120313A40024080F39A1002108A200B1
:101908002408F039A1002108A30008152308A10024
:1019180004300310A10CFF3E031D8D2C21080A1270
:101928008A15F7230A128A158312031388150530BE
:1019380083120313A100A10B9F2CA22C8312031363
:10194800881122080A128A15F7230A128A158312A7
:1019580003138815053083120313A100A10BB22CC1
:10196800B52C831203138811080083120313AA01EC
:10197800AB01E22C2A082507A8002608A7000318AF
:10198800A70AAA1FC82CA703831203132708A900B4
:101998002908FF00280884000A128A1500200A1264
:1019A8008A150A128A157C240A128A1501308312B4
:1019B8000313AA070318AB0A0030AB072A08250748
:1019C800A8002608A7000318A70AAA1FEC2CA7033B
:1019D800831203132708A9002908FF002808840098
:1019E8000A128A1500200A128A15003A031DFD2CD6
:1019F800FE2CBE2C080083120313A601A7012008A1
:101A080021040319082D092D402DA501A50A172D1C
:101A180001300310A00DA10DFF3E031D0D2D013057
:101A2800A4002408A507A11F1A2D1B2D0C2D013079
:101A38000310A60DA70DFF3E031D1C2D2108230230
:101A4800031D282D20082202031C2B2D2C2D332D9D
:101A58002008A2022108031CA303A30226140130B4
:101A68000310A10CA00CFF3E031D342D0130A5026C
:101A7800031D3F2D402D1B2D2708A1002608A0007F
:101A8800080083120313A7002703031D4C2D4D2DB7
:101A9800722D24087F3EA5002508AA002A08A50063
:101AA80004300310A50CFF3E031D552D2508A60084
:101AB8002608A8002A080F39A5002508A900280823
:101AC8000A128A15DC230A128A15831203132908BD
:101AD8000A128A15DC230A128A159C2D0230270661
:101AE800031D772D782D9C2D2408BF3EA5002508C1
:101AF800AA002A08A50004300310A50CFF3E031D08
:101B0800802D2508A6002608A8002A080F39A50058
:101B18002508A90028080A128A15DC230A128A1542
:101B28008312031329080A128A15DC230A128A155C
:101B380008008B1CA02DA12DD12D8B10CB2D64005E
:101B480083120313071087110711871007168716CA
:101B58000230F2004530F100A930F000F00BB22D50
:101B6800F10BB22DF20BB22DB92D640083120313C1
:101B7800071287120230F2004530F100A930F00058
:101B8800F00BC42DF10BC42DF20BC42DCB2D8312F9
:101B98000313061CD02DD12DA32D831203130C1C67
:101BA800D62DD72DF12D0C100B308F00DC308E0088
:101BB8000130E7070318E80A0030E8073B306706FA
:101BC8006804031DE82DE92DF12D0130E507031800
:101BD800E60A0030E607E701E80174088A00730E98
:101BE8008300FE0E7E0E090000300A128A15F723C4
:101BF8000A128A150D3083120313A500FB30A400C6
:101C0800A40B042EA50B042E03300A128A15DC231C
:101C18000A128A15043083120313A5003D30A4006C
:101C2800A40B142EA50B142E03300A128A15DC23DC
:101C38000A128A15083083120313A5002230A40063
:101C4800A40B242EA50B242E000003300A128A159B
:101C5800DC230A128A1502300A128A15DC230A12BA
:101C68008A1502300A128A15DC230A128A150830EE
:101C78000A128A15DC230A128A1500300A128A15FC
:101C8800DC230A128A150C300A128A15DC230A1280
:101C98008A1500300A128A15DC230A128A150630C2
:101CA8000A128A15DC230A128A1508008312031304
:101CB800A80028080319612E622E762EA31F652E10
:101CC800662E762E2009AA002109AB002209AC0055
:101CD8002309AD00AA0A0319AB0A0319AC0A0319B0
:101CE800AD0A7E2E2308AD002208AC002108AB0007
:101CF8002008AA002308220421042004031D852E9D
:101D0800862E8F2E0030A3000030A2000030A100E4
:101D18000030A000152F9630A4002408A900A12E99
:101D28000130A4002408A90701300310AD0CAC0C45
:101D3800AB0CAA0CFF3E031D992EFE302D05031D8A
:101D4800A62EA72E942EC32E0130A4002408A9077E
:101D58000130AA07003003180130AB070030031820
:101D68000130AC07003003180130AD070130031013
:101D7800AD0CAC0CAB0CAA0CFF3E031DBB2EFF3008
:101D88002D05031DC82EC92EA82ED52E0130A90257
:101D98000130A4000310AA0DAB0DAC0DAD0DA40BC2
:101DA800CE2EAC1BD82ED92EDF2E023029020318D6
:101DB800DE2EDF2ECA2E2918E22EE32EEB2EFF3060
:101DC800AA05FF30AB057F30AC05FF30AD05031029
:101DD800A90C2908A400A501A601A7011830031021
:101DE800A40DA50DA60DA70DFF3E031DF32E240877
:101DF800AA042508AB042608AC042708AD04280863
:101E08000319072F082F0D2FA31F0B2F0C2F0D2F92
:101E1800AD172D08A3002C08A2002B08A1002A0842
:101E2800A000080083120313B9002F30B100310855
:101E3800B400E92F25303A060319232F242F302F19
:101E48003A08B10039088400310883138000013052
:101E5800B1003108B907E92FB5010130AE07FF30ED
:101E68002E0784000A128A150A200A128A15BA0057
:101E7800B100B2013208003A0319432FE92F3108A3
:101E8800003A0319FB2F643A03194E2F0D3A031930
:101E98004E2FE92F3408840083130008B700840A02
:101EA8000008B8000230B1003108B407B81F5D2F30
:101EB8005E2F672F0330B1003108B504B709B809A0
:101EC800B70A0319B80ABA01BA0A3A08B1003107C1
:101ED800013E84000A128A150A200A128A15B200E5
:101EE8000A128A150A200A128A15B3003308380222
:101EF800031D802F320837020318832F842F852F64
:101F08008F2F0130B1003108BA0705303A06031D9A
:101F18008E2F8F2F692F350803390319942F952F8A
:101F2800A02F2D30B10039088400310883138000B8
:101F38000130B1003108B9073A08B1003108B600DC
:101F4800E02F0A30A8000030A9003608B100310798
:101F5800013E84000A128A150A200A128A15A00076
:101F68000A128A150A200A128A15A1003808A30045
:101F78003708A2000A128A15FF240A128A1583124A
:101F880003132108AB002008AA000A128A1540246E
:101F98000A128A15831203132808303EB200320849
:101FA800BA003A08B1003908840031088313800068
:101FB8000130B1003108B907FF30B1003108B60768
:101FC800360A031DE82FE92FA52F0130AE07FF3091
:101FD8002E0784000A128A150A200A128A15B100EF
:101FE8003108BA003A08031DFA2FFB2F1E2F3908B3
:081FF80084008313800108003E
:02400E00F53F7C
:00000001FF
