:060000000A128A110E280D
:10000800FE00030EF3000A08F4007F08F5000A1248
:100018008A1115280A128A11112883010A128A11D5
:10002800C0288B1C18281928B7288B108312031393
:1000380086181F282028B228861923282428B228A1
:10004800F601F7018312031307141530F2004B3041
:10005800F100BE30F000F00B2F28F10B2F28F20B27
:100068002F2800008312031307101530F2004B30BD
:10007800F100BE30F000F00B3F28F10B3F28F20BE7
:100088003F2800000130F6070318F70A0030F70789
:100098007708803AFF0080307F02031D552805301D
:1000A8007602031C58285928262883280714033069
:1000B800F2008A30F1005530F000F00B6128F10BA6
:1000C8006128F20B61286828831203130710033094
:1000D800F2008A30F1005530F000F00B7128F10B76
:1000E8007128F20B7128782883120313061D7D28C6
:1000F8007E288128881507178328881107138312FB
:100108000313061C882889285A280130FA00003071
:10011800FB00B72807140330F2008A30F10055308D
:10012800F000F00B9528F10B9528F20B95289C28E8
:100138008312031307100330F2008A30F1005530A0
:10014800F000F00BA528F10BA528F20BA528AC2888
:10015800831203138811881007120713061CB52889
:10016800B6288E2889287508FF0074088A00730E3F
:100178008300FE0E7E0E09003F30831603138100B4
:100188008B170B16FF308600870188018312031333
:10019800860187018801FA01FB01F801F9010A12B9
:1001A8008A1162210A128A11831203130710512936
:1001B80078087904031DE128E228F0288312031344
:1001C8008618E728E828F0288811071388140716E6
:1001D8000130F8000030F90078037904031DF52890
:1001E800F6282929831203130619FB28FD28013054
:1001F800FE280030A000861D0229042901300529A7
:1002080000302005003803190A290B2929290A1268
:100218008A1162210A128A11663083120313A2001E
:100228007630A100C030A000A00B1829A10B182916
:10023800A20B1829000083120313881507178810CA
:1002480007120230F8000030F9000230780679040D
:10025800031D2F2930295129831203130619352923
:1002680036295129861D39293A2951290A128A1114
:1002780062210A128A11063083120313A200133076
:10028800A100AD30A000A00B4729A10B4729A20B64
:1002980047290330F8000030F90003307806790464
:1002A800031957295829CF287A087B0403195D298F
:1002B8005E29DC28CF280A128A110E28831203131C
:0A02C80007120713881088110800C0
:08400000FF3FFF3FFF3FFF3FC0
:02400E00FF3F72
:00000001FF
